:100000000C9472000C947E000C947E000C947E0084
:100010000C947E000C947E000C947E000C947E0068
:100020000C947E000C947E000C947E000C947E0058
:100030000C947E000C947E000C947E000C947E0048
:100040000C947E000C9480000C947E000C947E0036
:100050000C947E000C947E000C947E000C947E0028
:100060000C947E000C947E000C947E000C947E0018
:100070000C947E000C947E000C947E000C947E0008
:100080000C947E000C947E000C947E000C947E00F8
:100090000C947E000C947E000C947E000C947E00E8
:1000A0000C947E000C947E000C947E000C947E00D8
:1000B0000C947E000C947E000C947E000C947E00C8
:1000C0000C947E000C947E000C947E000C947E00B8
:1000D0000C947E000C947E000C947E000C947E00A8
:1000E0000C947E0011241FBECFEFD1E2DEBFCDBF46
:1000F00000E00CBF0E94CB000C94D5000C940000D3
:100100000F931F930FB70F930091000210910102FC
:10011000039509F4139500930002109301020091D6
:10012000010210910202012B31F0015010400093A6
:100130000102109302020F910FBF1F910F911895AA
:1001400000E804B900E00093800000E0009389001B
:1001500009EF009388000BE00093810002E0009318
:100160006F0000E00093000200930102009301027F
:100170000093020278940895882311F4992351F092
:1001800080930102909302022091010230910202B9
:10019000232BD1F70895D4DF2F9A8AEF90E0ECDF7C
:0E01A0002F988AEF90E0E8DFF7CFF894FFCFBA
:0201AE0002024B
:00000001FF
