:100000000C9472000C947E000C947E000C947E0084
:100010000C947E000C947E000C947E000C947E0068
:100020000C947E000C947E000C947E000C947E0058
:100030000C947E000C947E000C947E000C947E0048
:100040000C947E000C9480000C947E000C947E0036
:100050000C947E000C947E000C947E000C947E0028
:100060000C947E000C947E000C947E000C947E0018
:100070000C947E000C947E000C947E000C947E0008
:100080000C947E000C947E000C947E000C947E00F8
:100090000C947E000C947E000C947E000C947E00E8
:1000A0000C947E000C947E000C947E000C947E00D8
:1000B0000C947E000C947E000C947E000C947E00C8
:1000C0000C947E000C947E000C947E000C947E00B8
:1000D0000C947E000C947E000C947E000C947E00A8
:1000E0000C947E0011241FBECFEFD1E2DEBFCDBF46
:1000F00000E00CBF0E94BE000C94C8000C940000ED
:100100000F931F930FB70F930091000210910102FC
:10011000012B31F0015010400093000210930102B6
:100120000F910FBF1F910F91189500E804B900E0DF
:1001300000938000009382000BE00093810000E0B8
:100140000093890009EF0093880002E000936F009C
:1001500000E0009300020093010278940895882340
:1001600011F4992351F080930002909301022091A1
:10017000000230910102232BD1F70895D6DF2F9A88
:100180008AEF90E0ECDF2F988AEF90E0E8DFF7CF7E
:04019000F894FFCF11
:02019400020067
:00000001FF
