:100000000C9472000C947E000C947E000C947E0084
:100010000C947E000C947E000C947E000C947E0068
:100020000C947E000C947E000C947E000C947E0058
:100030000C947E000C947E000C947E000C947E0048
:100040000C947E000C9480000C947E000C947E0036
:100050000C947E000C947E000C947E000C947E0028
:100060000C947E000C947E000C947E000C947E0018
:100070000C947E000C947E000C947E000C947E0008
:100080000C947E000C947E000C947E000C947E00F8
:100090000C947E000C947E000C947E000C947E00E8
:1000A0000C947E000C947E000C947E000C947E00D8
:1000B0000C947E000C947E000C947E000C947E00C8
:1000C0000C947E000C947E000C947E000C947E00B8
:1000D0000C947E000C947E000C947E000C947E00A8
:1000E0000C947E0011241FBECFEFD1E2DEBFCDBF46
:1000F00000E00CBF0E94C5000C94CF000C940000DF
:100100000FB60F924F935F936F93409100025091FF
:100110000102642F652B31F04150504040930002A2
:10012000509301026F915F914F910FBE0F90189500
:1001300000E804B900E000938000009382000BE027
:100140000093810000E00093890009EF009388008C
:1001500002E000936F0000E00093000200930102B0
:1001600078940895882311F4992371F0F89480937A
:100170000002909301027894F8942091000230914B
:1001800001027894232BC1F70895D2DF2F9A88EECD
:1001900093E0E8DF2F9888EE93E0E4DFF7CFF89460
:0201A000FFCF8F
:0201A200020059
:00000001FF
