:020000020000FC
:0200000024C01A
:1000440025C0060A050901E20EBF0FEF0DBF1124FA
:1000540000E804B92F980FE00AB90BB900E0009347
:100064008000009382000BE00093810000E0009385
:10007400890009EF0093880002E000936F0000E01C
:10008400009300020093010278942DC00F920FB6E2
:100094000F920F931F932F9300910002109101026E
:1000A400202F212B31F001501040009300021093B7
:1000B40001022F911F910F910F900FBE0F90189571
:1000C400882311F4992371F0F8948093000290939B
:1000D40001027894F89430910002409101027894DE
:1000E400342BC1F70895E6E4F0E02AE430E02F9AD7
:1000F40005911BB1107F102B1BB98EE090E0E0DF5F
:100104002F988EE090E0DCDFE217F30781F7E6E456
:04011400F0E0EDCF5B
:00000001FF
